:100000000C942A000C943F000C943F000C943F0089
:100010000C943F000C943F000C943F000C943F0064
:100020000C943F000C943F000C943F000C943F0054
:100030000C943F000C943F000C943F000C943F0044
:100040000C943F000C943F000C943F000C943F0034
:100050000C943F0011241FBECFE5D8E0DEBFCDBF1A
:1000600010E0A0E6B0E0EAE5FFE102C005900D92E5
:10007000AA39B107D9F70E9499000C94AB0F0C94E0
:100080000000CF93DF93CDB7DEB787E290E0FC01AD
:10009000208187E290E0206CFC01208386E290E0E2
:1000A00023E8FC0120830000DF91CF910895CF93D6
:1000B000DF930F92CDB7DEB78983898187708983FB
:1000C00087E290E0FC01208187E290E0207EFC0145
:1000D000208387E290E0FC01308187E290E0298173
:1000E000232BFC01208386E290E0FC01208186E244
:1000F00090E02064FC012083000086E290E0FC0197
:100100008081882F90E080719927892BB1F386E256
:1001100090E0FC01208186E290E02061FC012083D8
:1001200084E290E0FC01808191810F90DF91CF917A
:100130000895CF93DF9300D000D0CDB7DEB71982FA
:100140001C821B821A820E9441000E94A1010E940F
:1001500036050E94870C0E94FC010E9475010E94D6
:100160000A0C0E94F70C89830E94150C9B838A83DA
:100170000E9409028C838C818823B9F060E080E0C2
:100180000E94960B0E940A0C80E690E00E946B0B86
:100190000E94870103C00E9409028C838C818823FE
:1001A000D1F70E9494010E940A0C8981893168F478
:1001B00060E080E00E94BD0163E080E00E94960B59
:1001C00080E790E00E946B0B3CC089818E3168F41F
:1001D00069E181E00E94BD0163E080E00E94960B2E
:1001E0008EE790E00E946B0B2CC08981833268F40B
:1001F00062E381E00E94BD0163E080E00E94960B13
:100200008EE790E00E946B0B1CC08981883268F4F5
:100210006BE481E00E94BD0163E080E00E94960BE8
:100220008EE790E00E946B0B0CC064E681E00E94B8
:10023000BD0163E080E00E94960B8EE790E00E9493
:100240006B0B8A819B81409750F480E00E94AD0C3B
:1002500081E00E94AD0C82E00E94AD0C26C08A8134
:100260009B81C39750F480E00E94AD0C81E00E9416
:10027000AD0C82E00E94D20C18C08A819B81873429
:10028000910550F480E00E94AD0C81E00E94D20CF8
:1002900082E00E94D20C09C080E00E94D20C81E072
:1002A0000E94D20C82E00E94D20C60E081E00E94A9
:1002B000960B8CE890E00E946B0B8981882F90E070
:1002C0000E94E60B8981843618F480E20E94AD0812
:1002D00082E990E00E946B0B8A819B810E94E60B71
:1002E00087E990E00E946B0B3CCFCF93DF93CDB7B3
:1002F000DEB741E063E083E00E94140240E063E087
:1003000083E00E9405030000DF91CF910895CF9311
:10031000DF93CDB7DEB741E063E083E00E940503E1
:100320000000DF91CF910895CF93DF93CDB7DEB773
:1003300040E063E083E00E9405030000DF91CF917D
:100340000895CF93DF93CDB7DEB741E060E081E061
:100350000E94140241E061E081E00E94140240E04A
:1003600060E081E00E94050340E061E081E00E94DE
:1003700005030000DF91CF910895CF93DF9300D064
:10038000CDB7DEB789836A838A81853610F084E62B
:100390008A838A810E94650D8981882F90E081304F
:1003A000910519F0029761F016C041E060E081E02C
:1003B0000E94050340E061E081E00E94050316C051
:1003C00040E060E081E00E94050341E061E081E0FF
:1003D0000E9405030BC040E060E081E00E9405033D
:1003E00040E061E081E00E940503000000000F9002
:1003F0000F90DF91CF910895CF93DF93CDB7DEB704
:1004000040E062E083E00E9414020000DF91CF919F
:100410000895CF93DF93CDB7DEB762E083E00E940B
:10042000F603DF91CF910895CF93DF9300D00F9221
:10043000CDB7DEB789836A834B838A81883008F021
:10044000DCC08981843008F0D9C08981882F90E090
:100450008330910509F4A1C0843091050CF0CEC021
:100460008230910509F469C0833091050CF0C6C053
:10047000009719F0019789F1C1C08B818130B1F4E7
:100480008AE390E0FC018081482F8A81282F30E0A8
:1004900081E090E002C0880F991F2A95E2F7242F8F
:1004A000282B8AE390E0FC012083A8C08AE390E037
:1004B000FC018081482F8A81282F30E081E090E084
:1004C00002C0880F991F2A95E2F78095242F2823D0
:1004D0008AE390E0FC01208391C08B818130B1F4EC
:1004E00087E390E0FC018081482F8A81282F30E04B
:1004F00081E090E002C0880F991F2A95E2F7242F2F
:10050000282B87E390E0FC01208378C087E390E00C
:10051000FC018081482F8A81282F30E081E090E023
:1005200002C0880F991F2A95E2F78095242F28236F
:1005300087E390E0FC01208361C08B818130B1F4BE
:1005400084E390E0FC018081482F8A81282F30E0ED
:1005500081E090E002C0880F991F2A95E2F7242FCE
:10056000282B84E390E0FC01208348C084E390E0E2
:10057000FC018081482F8A81282F30E081E090E0C3
:1005800002C0880F991F2A95E2F78095242F28230F
:1005900084E390E0FC01208331C08B818130B1F491
:1005A00081E390E0FC018081482F8A81282F30E090
:1005B00081E090E002C0880F991F2A95E2F7242F6E
:1005C000282B81E390E0FC01208318C081E390E0B8
:1005D000FC018081482F8A81282F30E081E090E063
:1005E00002C0880F991F2A95E2F78095242F2823AF
:1005F00081E390E0FC01208301C0000000000F9027
:100600000F900F90DF91CF910895CF93DF9300D09B
:100610000F92CDB7DEB789836A834B838A81883096
:1006200008F0DCC08981843008F0D9C08981882F26
:1006300090E08330910509F4A1C0843091050CF05D
:10064000CEC08230910509F469C0833091050CF069
:10065000C6C0009719F0019789F1C1C08B81813024
:10066000B1F48BE390E0FC018081482F8A81282F30
:1006700030E081E090E002C0880F991F2A95E2F7F0
:10068000242F282B8BE390E0FC012083A8C08BE370
:1006900090E0FC018081482F8A81282F30E081E0A2
:1006A00090E002C0880F991F2A95E2F78095242FC9
:1006B00028238BE390E0FC01208391C08B81813063
:1006C000B1F488E390E0FC018081482F8A81282FD3
:1006D00030E081E090E002C0880F991F2A95E2F790
:1006E000242F282B88E390E0FC01208378C088E346
:1006F00090E0FC018081482F8A81282F30E081E042
:1007000090E002C0880F991F2A95E2F78095242F68
:10071000282388E390E0FC01208361C08B81813035
:10072000B1F485E390E0FC018081482F8A81282F75
:1007300030E081E090E002C0880F991F2A95E2F72F
:10074000242F282B85E390E0FC01208348C085E31B
:1007500090E0FC018081482F8A81282F30E081E0E1
:1007600090E002C0880F991F2A95E2F78095242F08
:10077000282385E390E0FC01208331C08B81813008
:10078000B1F482E390E0FC018081482F8A81282F18
:1007900030E081E090E002C0880F991F2A95E2F7CF
:1007A000242F282B82E390E0FC01208318C082E3F1
:1007B00090E0FC018081482F8A81282F30E081E081
:1007C00090E002C0880F991F2A95E2F78095242FA8
:1007D000282382E390E0FC01208301C00000000098
:1007E0000F900F900F90DF91CF910895CF93DF93EB
:1007F00000D00F92CDB7DEB78A836B8319828B81CD
:10080000883008F077C08A81843008F074C08A810B
:10081000882F90E08330910509F455C0843091050C
:100820000CF069C082309105B9F1833091050CF06C
:1008300062C0009719F00197C1F05DC089E390E0B4
:10084000FC018081882F90E02B81222F30E002C0B4
:10085000959587952A95E2F781709927892B19F04C
:1008600081E0898348C0198246C086E390E0FC019C
:100870008081882F90E02B81222F30E002C0959557
:1008800087952A95E2F781709927892B19F081E0E5
:10089000898331C019822FC083E390E0FC018081FD
:1008A000882F90E02B81222F30E002C0959587950C
:1008B0002A95E2F781709927892B19F081E08983C5
:1008C0001AC0198218C080E390E0FC018081882F53
:1008D00090E02B81222F30E002C0959587952A95D4
:1008E000E2F781709927892B19F081E0898303C091
:1008F000198201C0000089810F900F900F90DF9145
:10090000CF910895CF93DF9300D0CDB7DEB7898321
:100910006A838981843060F58981882F90E08330F3
:10092000910501F1843091051CF582309105A1F00B
:1009300083309105ECF4009719F0019739F018C055
:100940008AE390E02A81FC01208312C087E390E0D3
:100950002A81FC0120830CC084E390E02A81FC0101
:10096000208306C081E390E02A81FC0120830000FF
:1009700000000F900F90DF91CF910895CF93DF93F8
:1009800000D0CDB7DEB789836A838981843060F572
:100990008981882F90E08330910501F184309105A1
:1009A0001CF582309105A1F083309105ECF400979D
:1009B00019F0019739F018C08BE390E02A81FC010F
:1009C000208312C088E390E02A81FC0120830CC0C0
:1009D00085E390E02A81FC01208306C082E390E059
:1009E0002A81FC012083000000000F900F90DF910E
:1009F000CF910895CF93DF9300D0CDB7DEB78A8330
:100A000019828A81843060F58A81882F90E0833052
:100A1000910501F1843091051CF582309105A1F01A
:100A200083309105ECF4009719F0019739F018C064
:100A300089E390E0FC018081898312C086E390E025
:100A4000FC01808189830CC083E390E0FC018081FC
:100A5000898306C080E390E0FC01808189830000E7
:100A600089810F900F90DF91CF910895CF93DF93FD
:100A7000CDB7DEB7A2970FB6F894DEBF0FBECDBFDD
:100A800041E060E083E00E94140241E061E083E025
:100A90000E94140280E090E0A0EAB1E489839A8386
:100AA000AB83BC8320E030E04AE755E469817A817A
:100AB0008B819C810E94FE0E6B8B7C8B8D8B9E8B21
:100AC0008B899C89AD89BE898D839E83AF83B887CE
:100AD00020E030E040E85FE36D817E818F81988582
:100AE0000E94A10D88232CF481E090E09A878987E9
:100AF00054C020E03FEF4FE757E46D817E818F8146
:100B000098850E94F90E1816D4F520E030E040E2F6
:100B100051E469817A818B819C810E94FE0E6F8BEA
:100B2000788F898F9A8F8F89988DA98DBA8D8F87AD
:100B3000988BA98BBA8B6F85788989899A890E944D
:100B4000180E6B8F7C8F8D8F9E8FAB8DBC8DBA876F
:100B5000A98710C080E991E09C878B878B859C8555
:100B60000197F1F79C878B87000089859A8501970B
:100B70009A87898789859A85892B61F719C06D8144
:100B80007E818F8198850E94180E6F8F78A389A32C
:100B90009AA38F8D98A19A87898789859A859E8740
:100BA0008D878D859E850197F1F79E878D87000043
:100BB0006FEF82E00E94820488E30E94EF058CE0E0
:100BC0000E94EF0581E00E94EF050000A2960FB69B
:100BD000F894DEBF0FBECDBFDF91CF910895CF93C4
:100BE000DF93CDB7DEB7C958D1090FB6F894DEBF91
:100BF0000FBECDBF89AF40E060E083E00E940503F7
:100C000080E090E0A0E8BFE38BA79CA7ADA7BEA7BC
:100C100020E030E04AE755E46BA57CA58DA59EA5B4
:100C20000E94FE0E2E966CAF7DAF8EAF9FAF2E97BB
:100C30002E968CAD9DADAEADBFAD2E978FA798AB68
:100C4000A9ABBAAB20E030E040E85FE36FA578A93C
:100C500089A99AA90E94A10D88232CF481E090E033
:100C60009CAB8BAB65C020E03FEF4FE757E46FA52F
:100C700078A989A99AA90E94F90E18160CF046C005
:100C800020E030E040E251E46BA57CA58DA59EA557
:100C90000E94FE0E62966CAF7DAF8EAF9FAF6297E3
:100CA00062968CAD9DADAEADBFAD62972A968CAF0E
:100CB0009DAFAEAFBFAF2A972A966CAD7DAD8EAD1E
:100CC0009FAD2A970E94180E66966CAF7DAF8EAFCF
:100CD0009FAF66976496AEADBFAD6497BCABABAB50
:100CE00010C080E991E09EAB8DAB8DA99EA90197C4
:100CF000F1F79EAB8DAB00008BA99CA901979CAB33
:100D00008BAB8BA99CA9892B61F71DC06FA578A916
:100D100089A99AA90E94180E6A966CAF7DAF8EAF12
:100D20009FAF6A9768968EAD9FAD68979CAB8BAB73
:100D30008BA99CA998AF8FAB8FA998AD0197F1F7BC
:100D400098AF8FAB000041E061E083E00E940503B3
:100D500080E090E0A0E8BFE38D8F9E8FAF8FB8A3B7
:100D600020E030E04AE755E46D8D7E8D8F8D98A1AF
:100D70000E94FE0E6E966CAF7DAF8EAF9FAF6E97EA
:100D80006E968CAD9DADAEADBFAD6E9789A39AA3A7
:100D9000ABA3BCA320E030E040E85FE369A17AA107
:100DA0008BA19CA10E94A10D88232CF481E090E0EE
:100DB0009EA38DA365C020E03FEF4FE757E469A1F4
:100DC0007AA18BA19CA10E94F90E18160CF046C0C6
:100DD00020E030E040E251E46D8D7E8D8F8D98A152
:100DE0000E94FE0EA2966CAF7DAF8EAF9FAFA29712
:100DF000A2968CAD9DADAEADBFADA29726968CAF41
:100E00009DAFAEAFBFAF269726966CAD7DAD8EADD4
:100E10009FAD26970E94180EA6966CAF7DAF8EAF41
:100E20009FAFA697A496AEADBFADA497BEA3ADA34A
:100E300010C080E991E098A78FA38FA198A5019792
:100E4000F1F798A78FA300008DA19EA101979EA303
:100E50008DA38DA19EA1892B61F71DC069A17AA1E7
:100E60008BA19CA10E94180EAA966CAF7DAF8EAF8D
:100E70009FAFAA97A8968EAD9FADA8979EA38DA36E
:100E80008DA19EA19AA789A789A59AA50197F1F797
:100E90009AA789A7000069AD82E00E94BE0480E0A5
:100EA00090E0A0E8BFE38F87988BA98BBA8B20E0F6
:100EB00030E04AE755E46F85788989899A890E94EC
:100EC000FE0EAE966CAF7DAF8EAF9FAFAE97AE9677
:100ED0008CAD9DADAEADBFADAE978B8B9C8BAD8B0E
:100EE000BE8B20E030E040E85FE36B897C898D8930
:100EF0009E890E94A10D88232CF481E090E0988FB8
:100F00008F8B65C020E03FEF4FE757E46B897C890A
:100F10008D899E890E94F90E18160CF046C020E0BB
:100F200030E040E251E46F85788989899A890E948E
:100F3000FE0EE2966CAF7DAF8EAF9FAFE297E2966A
:100F40008CAD9DADAEADBFADE29722968CAF9DAF9F
:100F5000AEAFBFAF229722966CAD7DAD8EAD9FAD8B
:100F600022970E94180EE6966CAF7DAF8EAF9FAFB2
:100F7000E697E496AEADBFADE497B88FAF8B10C0E7
:100F800080E991E09A8F898F898D9A8D0197F1F789
:100F90009A8F898F00008F89988D0197988F8F8BFA
:100FA0008F89988D892B61F71DC06B897C898D890C
:100FB0009E890E94180EEA966CAF7DAF8EAF9FAFF0
:100FC000EA97E8968EAD9FADE897988F8F8B8F89C3
:100FD000988D9C8F8B8F8B8D9C8D0197F1F79C8FBB
:100FE0008B8F000040E061E083E00E94050380E019
:100FF00090E0A0E8BFE389839A83AB83BC8320E0C1
:1010000030E04AE755E469817A818B819C810E94B6
:10101000FE0EEE966CAF7DAF8EAF9FAFEE97EE9665
:101020008CAD9DADAEADBFADEE978D839E83AF838E
:10103000B88720E030E040E85FE36D817E818F81FA
:1010400098850E94A10D88232CF481E090E09A8776
:1010500089876DC020E03FEF4FE757E46D817E81C7
:101060008F8198850E94F90E18160CF04AC020E076
:1010700030E040E251E469817A818B819C810E9459
:10108000FE0EC258DF4F688379838A839B83CE57D5
:10109000D040C258DF4F88819981AA81BB81CE5749
:1010A000D0408AAF9BAFACAFBDAF6AAD7BAD8CAD6E
:1010B0009DAD0E94180ECE57DF4F688379838A83D7
:1010C0009B83C258D040CE57DF4FA881B981C25808
:1010D000D040BA87A98710C080E991E09C878B87B0
:1010E0008B859C850197F1F79C878B87000089850C
:1010F0009A8501979A87898789859A85892B61F7CF
:1011000021C06D817E818F8198850E94180ECA57FB
:10111000DF4F688379838A839B83C658D040CA5740
:10112000DF4F88819981C658D0409A878987898501
:101130009A859E878D878D859E850197F1F79E877D
:101140008D8700000000C757DF4F0FB6F894DEBF51
:101150000FBECDBFDF91CF910895CF93DF93CDB771
:10116000DEB7C958D1090FB6F894DEBF0FBECDBFA8
:1011700089AF41E060E083E00E94050380E090E0F9
:10118000A0E8BFE38BA79CA7ADA7BEA720E030E0F7
:101190004AE755E46BA57CA58DA59EA50E94FE0E91
:1011A0002E966CAF7DAF8EAF9FAF2E972E968CADE7
:1011B0009DADAEADBFAD2E978FA798ABA9ABBAAB27
:1011C00020E030E040E85FE36FA578A989A99AA9FB
:1011D0000E94A10D88232CF481E090E09CAB8BABA6
:1011E00065C020E03FEF4FE757E46FA578A989A9D4
:1011F0009AA90E94F90E18160CF046C020E030E0C3
:1012000040E251E46BA57CA58DA59EA50E94FE0E33
:1012100062966CAF7DAF8EAF9FAF629762968CADDA
:101220009DADAEADBFAD62972A968CAF9DAFAEAF10
:10123000BFAF2A972A966CAD7DAD8EAD9FAD2A9734
:101240000E94180E66966CAF7DAF8EAF9FAF66970B
:101250006496AEADBFAD6497BCABABAB10C080E9DC
:1012600091E09EAB8DAB8DA99EA90197F1F79EAB46
:101270008DAB00008BA99CA901979CAB8BAB8BA974
:101280009CA9892B61F71DC06FA578A989A99AA986
:101290000E94180E6A966CAF7DAF8EAF9FAF6A97B3
:1012A00068968EAD9FAD68979CAB8BAB8BA99CA9C4
:1012B00098AF8FAB8FA998AD0197F1F798AF8FAB2F
:1012C000000041E061E083E00E94050380E090E0DF
:1012D000A0E8BFE38D8F9E8FAF8FB8A320E030E0F2
:1012E0004AE755E46D8D7E8D8F8D98A10E94FE0E8C
:1012F0006E966CAF7DAF8EAF9FAF6E976E968CADD6
:101300009DADAEADBFAD6E9789A39AA3ABA3BCA3B1
:1013100020E030E040E85FE369A17AA18BA19CA1C5
:101320000E94A10D88232CF481E090E09EA38DA360
:1013300065C020E03FEF4FE757E469A17AA18BA198
:101340009CA10E94F90E18160CF046C020E030E077
:1013500040E251E46D8D7E8D8F8D98A10E94FE0E2E
:10136000A2966CAF7DAF8EAF9FAFA297A2968CADC9
:101370009DADAEADBFADA29726968CAF9DAFAEAF83
:10138000BFAF269726966CAD7DAD8EAD9FAD2697EF
:101390000E94180EA6966CAF7DAF8EAF9FAFA6973A
:1013A000A496AEADBFADA497BEA3ADA310C080E917
:1013B00091E098A78FA38FA198A50197F1F798A71F
:1013C0008FA300008DA19EA101979EA38DA38DA147
:1013D0009EA1892B61F71DC069A17AA18BA19CA157
:1013E0000E94180EAA966CAF7DAF8EAF9FAFAA97E2
:1013F000A8968EAD9FADA8979EA38DA38DA19EA10B
:101400009AA789A789A59AA50197F1F79AA789A70D
:10141000000069AD82E00E94BE0480E090E0A0E898
:10142000BFE38F87988BA98BBA8B20E030E04AE727
:1014300055E46F85788989899A890E94FE0EAE9657
:101440006CAF7DAF8EAF9FAFAE97AE968CAD9DADBE
:10145000AEADBFADAE978B8B9C8BAD8BBE8B20E0C2
:1014600030E040E85FE36B897C898D899E890E942A
:10147000A10D88232CF481E090E0988F8F8B65C0BC
:1014800020E03FEF4FE757E46B897C898D899E8987
:101490000E94F90E18160CF046C020E030E040E241
:1014A00051E46F85788989899A890E94FE0EE296B7
:1014B0006CAF7DAF8EAF9FAFE297E2968CAD9DADE6
:1014C000AEADBFADE29722968CAF9DAFAEAFBFAFD2
:1014D000229722966CAD7DAD8EAD9FAD22970E9476
:1014E000180EE6966CAF7DAF8EAF9FAFE697E49691
:1014F000AEADBFADE497B88FAF8B10C080E991E07F
:101500009A8F898F898D9A8D0197F1F79A8F898F9C
:1015100000008F89988D0197988F8F8B8F89988D78
:10152000892B61F71DC06B897C898D899E890E94FA
:10153000180EEA966CAF7DAF8EAF9FAFEA97E89634
:101540008EAD9FADE897988F8F8B8F89988D9C8FEC
:101550008B8F8B8D9C8D0197F1F79C8F8B8F00006B
:1015600040E061E083E00E94050380E090E0A0E8B5
:10157000BFE389839A83AB83BC8320E030E04AE7F2
:1015800055E469817A818B819C810E94FE0EEE96E2
:101590006CAF7DAF8EAF9FAFEE97EE968CAD9DADED
:1015A000AEADBFADEE978D839E83AF83B88720E04D
:1015B00030E040E85FE36D817E818F8198850E94F5
:1015C000A10D88232CF481E090E09A8789876DC073
:1015D00020E03FEF4FE757E46D817E818F81988552
:1015E0000E94F90E18160CF04AC020E030E040E2EC
:1015F00051E469817A818B819C810E94FE0EC258E0
:10160000DF4F688379838A839B83CE57D040C2584B
:10161000DF4F88819981AA81BB81CE57D0408AAFA4
:101620009BAFACAFBDAF6AAD7BAD8CAD9DAD0E9445
:10163000180ECE57DF4F688379838A839B83C25805
:10164000D040CE57DF4FA881B981C258D040BA8769
:10165000A98710C080E991E09C878B878B859C854A
:101660000197F1F79C878B87000089859A85019700
:101670009A87898789859A85892B61F721C06D8131
:101680007E818F8198850E94180ECA57DF4F68832C
:1016900079838A839B83C658D040CA57DF4F88819D
:1016A0009981C658D0409A87898789859A859E876F
:1016B0008D878D859E850197F1F79E878D87000028
:1016C0000000C757DF4F0FB6F894DEBF0FBECDBF87
:1016D000DF91CF910895CF93DF9300D00F92CDB7D4
:1016E000DEB79B838A8319820EC08981882F90E0A0
:1016F0002A813B81820F931FFC0180810E94AD08EB
:1017000089818F5F89838981882F90E02A813B813D
:10171000820F931FFC018081882339F700000000AD
:101720000F900F900F90DF91CF910895CF93DF939B
:1017300000D00F92CDB7DEB78A836B838A81882F62
:1017400090E083309105C9F084309105D4F4823063
:10175000910579F083309105A4F4009719F0019771
:1017600021F00FC08B8189830CC08B81805C8983C1
:1017700008C08B81805F898304C08B81805B8983F3
:101780000000898180680E94EF0500000F900F9093
:101790000F90DF91CF910895CF93DF9300D000D0C9
:1017A000CDB7DEB789836A835C834B836A81898185
:1017B0000E94960B8B819C810E946B0B00000F9006
:1017C0000F900F900F90DF91CF910895CF93DF93FB
:1017D000CDB7DEB762970FB6F894DEBF0FBECDBFB0
:1017E0009A8B898B89899A894AE050E09E012F5F04
:1017F0003F4FB9010E946B0FCE0101960E946B0B07
:10180000000062960FB6F894DEBF0FBECDBFDF9129
:10181000CF910895CF93DF93CDB7DEB781E00E94DB
:10182000EF050000DF91CF910895CF93DF93CDB7FF
:10183000DEB7A0970FB6F894DEBF0FBECDBF1A82F9
:1018400019821C821B8280E00E9457009C838B833C
:101850008B819C81AC0160E070E084E690E0DC016B
:101860009A01AB010E94870D6D837E838F839887D9
:101870006D817E818F8198850E94470E69877A8766
:101880008B879C872AE037ED43E250E469857A85AF
:101890008B859C850E94FE0E6D8B7E8B8F8B988F27
:1018A0008D899E89AF89B88D8D879E87AF87B88BCC
:1018B00024E13EEA43E255E46D857E858F85988973
:1018C0000E94A60D698F7A8F8B8F9C8F898D9A8D40
:1018D000AB8DBC8D898B9A8BAB8BBC8B69897A89DC
:1018E0008B899C890E94180E6D8F7E8F8F8F98A395
:1018F000AD8DBE8DBA83A98389819A81A0960FB6DA
:10190000F894DEBF0FBECDBFDF91CF910895CF9386
:10191000DF93CDB7DEB741E065E081E00E941402BD
:1019200040E065E081E00E94050341E066E081E07F
:101930000E94140240E066E081E00E94050341E05D
:1019400067E081E00E94140240E067E081E00E94CD
:1019500005030000DF91CF910895CF93DF930F929D
:10196000CDB7DEB789838981882331F441E065E012
:1019700081E00E94050311C08981813031F441E08A
:1019800066E081E00E94050308C08981823029F465
:1019900041E067E081E00E94050300000F90DF91C5
:1019A000CF910895CF93DF930F92CDB7DEB78983A0
:1019B0008981882331F440E065E081E00E940503DD
:1019C00011C08981813031F440E066E081E00E94FD
:1019D000050308C08981823029F440E067E081E096
:1019E0000E94050300000F90DF91CF910895CF93DF
:1019F000DF93CDB7DEB76F970FB6F894DEBF0FBE9B
:101A0000CDBF19821B821A8281E00E9457009B83FE
:101A10008A838A819B81AC0160E070E086E990E076
:101A2000DC019A01AB010E94870D6C837D838E835C
:101A30009F836C817D818E819F810E94470E688784
:101A400079878A879B872AE037ED43E250E46885EF
:101A500079858A859B850E94FE0E6C8B7D8B8E8B93
:101A60009F8B8C899D89AE89BF898C879D87AE8726
:101A7000BF8720E030ED4FEB54E46C857D858E858B
:101A80009F850E94A60D688F798F8A8F9B8F888D86
:101A9000998DAA8DBB8D888B998BAA8BBB8B6889FE
:101AA00079898A899B890E94180E6C8F7D8F8E8F11
:101AB0009F8F9C8D998389816F960FB6F894DEBFB6
:101AC0000FBECDBFDF91CF910895CF93DF930F92DB
:101AD000CDB7DEB7898382E590E0FC0110828CE50A
:101AE00090E02981FC01208387E390E0FC012081C4
:101AF00087E390E02860FC01208383E590E02DE6F9
:101B0000FC01208300000F90DF91CF9108950E9487
:101B1000920DA59F900DB49F900DA49F800D911DD7
:101B200011240895A29FB001B39FC001A39F700D1F
:101B3000811D1124911DB29F700D811D1124911DD5
:101B400008950E94840E08F481E008950E94BA0D61
:101B50000C94BF0E0E94B80E58F00E94B10E40F0D7
:101B600029F45F3F29F00C94A80E51110C94F30E48
:101B70000C94AE0E0E94D00E68F39923B1F3552356
:101B800091F3951B550BBB27AA2762177307840790
:101B900038F09F5F5F4F220F331F441FAA1FA9F326
:101BA00035D00E2E3AF0E0E832D091505040E69514
:101BB000001CCAF72BD0FE2F29D0660F771F881F75
:101BC000BB1F261737074807AB07B0E809F0BB0B68
:101BD000802DBF01FF2793585F4F3AF09E3F51057C
:101BE00078F00C94A80E0C94F30E5F3FE4F3983E4B
:101BF000D4F3869577956795B795F7959F5FC9F765
:101C0000880F911D9695879597F90895E1E0660FE5
:101C1000771F881FBB1F621773078407BA0720F05E
:101C2000621B730B840BBA0BEE1F88F7E0950895C7
:101C30000E94D80E88F09F5798F0B92F9927B75176
:101C4000B0F0E1F0660F771F881F991F1AF0BA9560
:101C5000C9F714C0B13091F00E94F20EB1E00895BE
:101C60000C94F20E672F782F8827B85F39F0B93FB0
:101C7000CCF3869577956795B395D9F73EF4909513
:101C80008095709561957F4F8F4F9F4F0895E89491
:101C900009C097FB3EF490958095709561957F4FB4
:101CA0008F4F9F4F9923A9F0F92F96E9BB27939562
:101CB000F695879577956795B795F111F8CFFAF472
:101CC000BB0F11F460FF1BC06F5F7F4F8F4F9F4FA3
:101CD00016C0882311F096E911C0772321F09EE801
:101CE000872F762F05C0662371F096E8862F70E067
:101CF00060E02AF09A95660F771F881FDAF7880F41
:101D00009695879597F90895990F0008550FAA0B96
:101D1000E0E8FEEF16161706E807F907C0F01216FE
:101D20001306E407F50798F0621B730B840B950B01
:101D300039F40A2661F0232B242B252B21F4089556
:101D40000A2609F4A140A6958FEF811D811D0895F3
:101D500097F99F6780E870E060E008959FEF80EC5E
:101D6000089500240A941616170618060906089501
:101D700000240A9412161306140605060895092E67
:101D80000394000C11F4882352F0BB0F40F4BF2BD6
:101D900011F460FF04C06F5F7F4F8F4F9F4F089516
:101DA00057FD9058440F551F59F05F3F71F047950C
:101DB000880F97FB991F61F09F3F79F087950895F1
:101DC000121613061406551FF2CF4695F1DF08C010
:101DD000161617061806991FF1CF8695710561052D
:101DE00008940895E894BB2766277727CB0197F9D5
:101DF00008950E94840E08F48FEF08950E94110F39
:101E00000C94BF0E0E94B10E38F00E94B80E20F064
:101E1000952311F00C94A80E0C94AE0E11240C9482
:101E2000F30E0E94D00E70F3959FC1F3950F50E012
:101E3000551F629FF001729FBB27F00DB11D639F7C
:101E4000AA27F00DB11DAA1F649F6627B00DA11D22
:101E5000661F829F2227B00DA11D621F739FB00DC8
:101E6000A11D621F839FA00D611D221F749F332738
:101E7000A00D611D231F849F600D211D822F762FD1
:101E80006A2F11249F5750409AF0F1F088234AF0AE
:101E9000EE0FFF1FBB1F661F771F881F915050401A
:101EA000A9F79E3F510580F00C94A80E0C94F30EF8
:101EB0005F3FE4F3983ED4F3869577956795B795A1
:101EC000F795E7959F5FC1F7FE2B880F911D9695BB
:101ED000879597F908954532510520F4423010F066
:101EE0000C94760FFB011082CB010895BB274A307A
:101EF00031F4992322F4BDE2909581959F4F0C9483
:101F0000820FBB27FB015527AA27880F991FAA1FFD
:101F1000A41710F0A41B83955051B9F7A05DAA3304
:101F200008F0A95DA193009779F7B111B1931192CF
:101F3000CB010C949B0FDC01FC01672F719177237F
:101F4000E1F7329704C07C916D9370836291AE1774
:0A1F5000BF07C8F30895F894FFCF0F
:101F5A00437269746963616C20616C6572742100F3
:101F6A0046414E206973204F4646202020004641B4
:101F7A004E206973204F4E202020200054656D703A
:0A1F8A003D004C44523D00252000AC
:00000001FF
